:100000000C943E000C9448000C9448000C9448005A
:100010000C9448000C9448000C9448000C94480040
:100020000C9448000C9448000C9448000C94480030
:100030000C9448000C9448000C9448000C94480020
:100040000C9448000C9448000C9448000C94480010
:100050000C9448000C9448000C9448000C94480000
:100060000C9448000C9448000C9448000C944800F0
:100070000C9448000C9448000C94480011241FBEB6
:10008000CFEFD8E0DEBFCDBF0E9454000C947200C9
:100090000C9400006AE00E946600292F30E1839FE3
:1000A000C0011124822B08958FEF81B914B887B94C
:1000B00085B91899FECF83B182958F7088B983B1C5
:1000C00082958F700E944A0082B9F3CF991B79E024
:1000D00004C0991F961708F0961B881F7A95C9F7D8
:0800E00080950895F894FFCF0C
:00000001FF
