:100000000C943E000C9448000C9448000C9448005A
:100010000C9448000C9448000C9448000C94480040
:100020000C9448000C9448000C9448000C94480030
:100030000C9448000C9448000C9448000C94480020
:100040000C9448000C9448000C9448000C94480010
:100050000C9448000C9448000C9448000C94480000
:100060000C9448000C9448000C9448000C944800F0
:100070000C9448000C9448000C94480011241FBEB6
:10008000CFEFD8E0DEBFCDBF0E944A000C945C00E9
:100090000C9400008FEF84B915B8289A83ED90E393
:1000A0000197F1F700C00000289883ED90E30197D5
:0C00B000F1F700C00000F1CFF894FFCF82
:00000001FF
