:100000000C943E000C9448000C9448000C9448005A
:100010000C9448000C9448000C9448000C94480040
:100020000C9448000C9448000C9448000C94480030
:100030000C9448000C9448000C9448000C94480020
:100040000C9448000C9448000C9448000C94480010
:100050000C9448000C9448000C9448000C94480000
:100060000C9448000C9448000C9448000C944800F0
:100070000C9448000C9448000C94480011241FBEB6
:10008000CFEFD8E0DEBFCDBF0E944A000C946D00D8
:100090000C9400008FEF84B915B883E294EF0197B8
:1000A000F1F700C0000080E090E041E050E021E086
:1000B00030E0841795072CF0220F331F4F5F5F4FFE
:1000C000F8CF25B9E3E2F4EF3197F1F700C0000073
:0E00D00001968830910549F7DFCFF894FFCFF5
:00000001FF
