:100000000C943E000C9448000C9448000C9448005A
:100010000C9448000C9448000C9448000C94480040
:100020000C9448000C9448000C9448000C94480030
:100030000C9448000C9448000C9448000C94480020
:100040000C9448000C9448000C9448000C94480010
:100050000C9448000C9448000C9448000C94480000
:100060000C9448000C9448000C9448000C944800F0
:100070000C9448000C9448000C94480011241FBEB6
:10008000CFEFD8E0DEBFCDBF0E944A000C946000E5
:100090000C94000014B88FEF85B98AB91BB8189B6F
:1000A000FECF8BB9E3E2F4EF3197F1F700C0000027
:1000B0001BB8E3E2F4EF3197F1F700C00000EFCF97
:0400C000F894FFCFE2
:00000001FF
