:100000000C947F000C9489000C9489000C94890056
:100010000C9489000C9489000C9489000C9489003C
:100020000C9489000C9489000C9489000C9489002C
:100030000C9489000C9489000C9489000C9489001C
:100040000C9489000C9489000C9489000C9489000C
:100050000C9489000C9489000C9489000C948900FC
:100060000C9489000C9489000C9489000C948900EC
:100070000C9489000C9489000C9489000763423623
:10008000B79BD8A71A39685618AEBAAB558C1D3C29
:10009000B7CC5763BD6DEDFD753EF6177231BF00ED
:1000A0000000803F08000000BE922449123EABAA27
:1000B000AA2ABECDCCCC4C3E00000080BEABAAAA82
:1000C000AA3E00000000BF000000803F00000000CA
:1000D00000084178D3BB4387D1133D190E3CC3BD03
:1000E0004282AD2B3E68EC8276BED98FE1A93E4CB0
:1000F00080EFFFBE01C4FF7F3F000000000011241D
:100100001FBECFEFD8E0DEBFCDBF0E948B000C94A6
:1001100090040C9400008FEF84B915B883E294EF3B
:100120000197F1F700C00000C0E0D0E0BE010D2E45
:10013000000C880B990B0E9400019B01AC0160E050
:1001400070E080E090E40E94A5010E94B8000E9447
:10015000CF0065B99FE926E881E0915020408040BA
:10016000E1F700C000002196C830D105F9F6D5CFDF
:100170000E94860190F09F3748F4911116F40C9478
:100180009F0160E070E080E89FE3089526F01B1671
:10019000611D711D811D0C943B010C9456010E9440
:1001A0006C0188F09F5798F0B92F9927B751B0F09C
:1001B000E1F0660F771F881F991F1AF0BA95C9F7EB
:1001C00014C0B13091F00E949E01B1E008950C94EA
:1001D0009E01672F782F8827B85F39F0B93FCCF39D
:1001E000869577956795B395D9F73EF49095809568
:1001F000709561957F4F8F4F9F4F0895E89409C088
:1002000097FB3EF490958095709561957F4F8F4F49
:100210009F4F9923A9F0F92F96E9BB279395F6955F
:10022000879577956795B795F111F8CFFAF4BB0FDD
:1002300011F460FF1BC06F5F7F4F8F4F9F4F16C041
:10024000882311F096E911C0772321F09EE8872FCB
:10025000762F05C0662371F096E8862F70E060E087
:100260002AF09A95660F771F881FDAF7880F969500
:10027000879597F90895882371F4772321F0985092
:10028000872B762F07C0662311F499270DC0905154
:10029000862B70E060E02AF09A95660F771F881F22
:1002A000DAF7880F9695879597F908959F3F31F073
:1002B000915020F4879577956795B795880F911D94
:1002C0009695879597F9089557FD9058440F551FB7
:1002D00059F05F3F71F04795880F97FB991F61F0C8
:1002E0009F3F79F087950895121613061406551F3F
:1002F000F2CF4695F1DF08C0161617061806991FAB
:10030000F1CF869571056105089408950E946C01EE
:10031000A0F0BEE7B91788F4BB279F3860F4161623
:10032000B11D672F782F8827985FF7CF869577952F
:100330006795B11D93959639C8F30895E894BB2746
:1003400066277727CB0197F90895FA01EE0FFF1F73
:10035000309621053105A1F16115710561F48038F0
:10036000BFE39B0749F168949038810561F08038BC
:10037000BFEF9B0741F099234AF5FF3FE1053105A7
:10038000210519F1E8940894E795D901AA2329F4E5
:10039000AB2FBE2FF85FD0F310C0FF5F70F4A695AF
:1003A000E0F7F73950F019F0FF3A38F49F779F9350
:1003B0000DD00F9007FC9058089546F00C9435022C
:1003C00060E070E080E89FE308954FE79F775F93D8
:1003D0004F933F932F930E94A9022F913F914F91EA
:1003E0005F910E9425030C94FD0129F416F00C94F2
:1003F0002F020C949E010C9435020E946C01A8F30C
:100400009638A0F707F80F92E8942BE33AEA48EB06
:100410005FE70E943B030F920F920F924DB75EB7BA
:100420000F920E94F102ECE7F0E00E9438024F9137
:100430005F91EF91FF91E595EE1FFF1F49F0FE5789
:10044000E0684427EE0F441FFA95E1F74195550BFC
:100450000E946B020F9007FE0C945F02089597F9BB
:100460009F6780E870E060E008959FEF80EC08955A
:10047000DF93CF931F930F93FF92EF92DF927B0155
:100480008C01689406C0DA2EEF010E943803FE0149
:10049000E894A5912591359145915591A6F3EF01E9
:1004A0000E94AA03FE019701A801DA9469F7DF9080
:1004B000EF90FF900F911F91CF91DF9108959B01D5
:1004C000AC0160E070E080E89FE30C94FF030C94C3
:1004D0002F020C9456010E946C01D8F39923C9F3A2
:1004E000940F511DA3F39150504094F059F088237C
:1004F00032F0660F771F881F91505040C1F79E3F22
:1005000051052CF7880F911D9695879597F90895B9
:100510005F3FACF0983E9CF0BB278695779567953A
:10052000B79508F4B1609395C1F7BB0F58F711F474
:1005300060FFE8CF6F5F7F4F8F4F9F4FE3CF0C94EB
:100540009F0116F00C9456010C94350268940C949B
:100550002F020E946C01A8F39923C1F3AEF3DF933D
:10056000CF931F930F93FF92C92FDD2788232AF083
:100570002197660F771F881FDAF720E030E040E808
:100580005FEB9FE3883920F0803E38F021968F772B
:100590000E949303E4EAF0E004C00E949303E1EDBB
:1005A000F0E00E9438028B01BE01EC01FB2E6F5778
:1005B00071097595771F880B990B0E94000128E13E
:1005C00032E741E35FE30E943803AF2D9801AE01AB
:1005D000FF900F911F91CF91DF910E94AA030C947D
:1005E0007F04FA01DC01AA0FBB1F9B01AC01BF57BE
:1005F00028F4222733274427507820C0B75190F49D
:10060000AB2F0024469537952795011CA395D2F36F
:10061000002071F0220F331F441FB395DAF30ED080
:100620000C94920361307105A0E88A07B94630F452
:100630009B01AC016627772788279078309621F0B8
:10064000208331834283538308950E9438030C949E
:100650007F040E94710438F00E94780420F09523F2
:1006600011F00C942F020C94350211240C949F016C
:100670000E94640170F3959FC1F3950F50E0551FE0
:10068000629FF001729FBB27F00DB11D639FAA27E7
:10069000F00DB11DAA1F649F6627B00DA11D661F36
:1006A000829F2227B00DA11D621F739FB00DA11D57
:1006B000621F839FA00D611D221F749F3327A00D11
:1006C000611D231F849F600D211D822F762F6A2FAD
:1006D00011249F5750409AF0F1F088234AF0EE0F12
:1006E000FF1FBB1F661F771F881F91505040A9F73F
:1006F0009E3F510580F00C942F020C949F015F3FA8
:10070000E4F3983ED4F3869577956795B795F7957A
:10071000E7959F5FC1F7FE2B880F911D96958795F2
:1007200097F908955058BB27AA270E94AA030C9452
:100730007F040E94710438F00E94780420F039F49C
:100740009F3F19F426F40C9435020EF4E095E7FB74
:100750000C942F02E92F0E94640158F3BA17620724
:1007600073078407950720F079F4A6F50C949E0191
:100770000EF4E0950B2EBA2FA02D0B01B9019001BC
:100780000C01CA01A0011124FF27591B99F0593F00
:1007900050F4503E68F11A16F040A22F232F342F48
:1007A0004427585FF3CF469537952795A795F04096
:1007B0005395C9F77EF41F16BA0B620B730B840BAB
:1007C000BAF09150A1F0FF0FBB1F661F771F881F63
:1007D000C2F70EC0BA0F621F731F841F48F48795BB
:1007E00077956795B795F7959E3F08F0B0CF9395AD
:1007F000880F08F09927EE0F9795879508950E9426
:1008000013040C947F040E94780458F00E94710431
:1008100040F029F45F3F29F00C942F0251110C9401
:100820009F010C9435020E94640168F39923B1F38F
:10083000552391F3951B550BBB27AA276217730706
:10084000840738F09F5F5F4F220F331F441FAA1F9A
:10085000A9F335D00E2E3AF0E0E832D09150504056
:10086000E695001CCAF72BD0FE2F29D0660F771F04
:10087000881FBB1F261737074807AB07B0E809F0EA
:10088000BB0B802DBF01FF2793585F4F3AF09E3F6F
:10089000510578F00C942F020C949F015F3FE4F314
:1008A000983ED4F3869577956795B795F7959F5FB2
:1008B000C9F7880F911D9695879597F90895E1E0FE
:1008C000660F771F881FBB1F621773078407BA075D
:1008D00020F0621B730B840BBA0BEE1F88F7E095B8
:1008E000089500240A941616170618060906089596
:1008F00000240A9412161306140605060895092EFC
:100900000394000C11F4882352F0BB0F40F4BF2B6A
:1009100011F460FF04C06F5F7F4F8F4F9F4F0895AA
:04092000F894FFCF79
:00000001FF
