:100000000C943E000C9448000C9448000C9448005A
:100010000C9448000C9448000C9448000C94480040
:100020000C9448000C9448000C9448000C94480030
:100030000C9448000C9448000C9448000C94480020
:100040000C9448000C9448000C9448000C94480010
:100050000C9448000C9448000C9448000C94480000
:100060000C9448000C9448000C9448000C944800F0
:100070000C9448000C9448000C94480011241FBEB6
:10008000CFEFD8E0DEBFCDBF0E944A000C946800DD
:100090000C9400008FEF84B915B82FE936E841E0E1
:1000A000215030404040E1F700C0000080E090E087
:1000B00085B92FE936E841E0215030404040E1F772
:1000C00000C000000196811521E0920789F7E4CF76
:0400D000F894FFCFD2
:00000001FF
